{
  "contractName": "ProvethVerifier",
  "abi": [
    {
      "inputs": [
        {
          "internalType": "bytes32",
          "name": "rootHash",
          "type": "bytes32"
        },
        {
          "internalType": "bytes",
          "name": "mptkey",
          "type": "bytes"
        },
        {
          "internalType": "bytes",
          "name": "proof",
          "type": "bytes"
        }
      ],
      "name": "MPTProof",
      "outputs": [
        {
          "internalType": "bytes",
          "name": "",
          "type": "bytes"
        }
      ],
      "stateMutability": "pure",
      "type": "function"
    }
  ],
  "bytecode": "0x608060405234801561001057600080fd5b50610fd5806100206000396000f3fe608060405234801561001057600080fd5b506004361061002b5760003560e01c806364f4c4db14610030575b600080fd5b61018a6004803603606081101561004657600080fd5b81019080803590602001909291908035906020019064010000000081111561006d57600080fd5b82018360208201111561007f57600080fd5b803590602001918460018302840111640100000000831117156100a157600080fd5b91908080601f016020809104026020016040519081016040528093929190818152602001838380828437600081840152601f19601f8201169050808301925050505050505091929192908035906020019064010000000081111561010457600080fd5b82018360208201111561011657600080fd5b8035906020019184600183028401116401000000008311171561013857600080fd5b91908080601f016020809104026020016040519081016040528093929190818152602001838380828437600081840152601f19601f820116905080830192505050505050509192919290505050610205565b6040518080602001828103825283818151815260200191508051906020019080838360005b838110156101ca5780820151818401526020810190506101af565b50505050905090810190601f1680156101f75780820380516001836020036101000a031916815260200191505b509250505060405180910390f35b60608061021961021484610230565b61025e565b9050610226858583610335565b9150509392505050565b610238610f6b565b600060208301905060405180604001604052808451815260200182815250915050919050565b6060610269826107b4565b61027257600080fd5b600061027d83610802565b9050806040519080825280602002602001820160405280156102b957816020015b6102a6610f85565b81526020019060019003908161029e5790505b50915060006102cb8460200151610873565b8460200151019050600080600090505b8381101561032c576102ec836108fc565b915060405180604001604052808381526020018481525085828151811061030f57fe5b6020026020010181905250818301925080806001019150506102db565b50505050919050565b606060008090506000606080610349610f6b565b6000875114156103c3577f56e81f171bcc55a6ff8345e692c0f86e5b48e01b996cadc001622fb5e363b42160001b891461038257600080fd5b60006040519080825280601f01601f1916602001820160405280156103b65781602001600182028038833980820191505090505b50955050505050506107ad565b60008090505b87518110156107a6576103ee8882815181106103e157fe5b60200260200101516109af565b9350600081148015610407575083805190602001208a14155b1561041157600080fd5b6000811415801561042a575061042684610a25565b8514155b1561043457600080fd5b61045088828151811061044357fe5b602002602001015161025e565b925060028351141561062157600060606104856104808660008151811061047357fe5b6020026020010151610ae0565b610b6c565b8092508193505050600061049a898d84610c33565b9050808901985081518110156105005760018b51038410156104bb57600080fd5b60006040519080825280601f01601f1916602001820160405280156104ef5781602001600182028038833980820191505090505b5099505050505050505050506107ad565b82156105955760018b510384101561051757600080fd5b8b518910156105655760006040519080825280601f01601f1916602001820160405280156105545781602001600182028038833980820191505090505b5099505050505050505050506107ad565b8560018151811061057257fe5b6020026020010151945061058585610ae0565b99505050505050505050506107ad565b60018b51038414156105a657600080fd5b6105c3866001815181106105b657fe5b60200260200101516107b4565b6105f2576105e4866001815181106105d757fe5b6020026020010151610ae0565b805190602001209750610619565b61060f8660018151811061060257fe5b60200260200101516109af565b8051906020012097505b505050610799565b601183511415610798578851861461075d57600089878151811061064157fe5b602001015160f81c60f81b60f81c905060018701965060108160ff161061066757600080fd5b610686848260ff168151811061067957fe5b6020026020010151610ced565b156106de576001895103821461069b57600080fd5b60006040519080825280601f01601f1916602001820160405280156106cf5781602001600182028038833980820191505090505b509750505050505050506107ad565b6106fd848260ff16815181106106f057fe5b60200260200101516107b4565b61072e57610720848260ff168151811061071357fe5b6020026020010151610ae0565b805190602001209550610757565b61074d848260ff168151811061074057fe5b60200260200101516109af565b8051906020012095505b50610797565b6001885103811461076d57600080fd5b61078a8360108151811061077d57fe5b6020026020010151610ae0565b96505050505050506107ad565b5b5b80806001019150506103c9565b5050505050505b9392505050565b600080826000015114156107cb57600090506107fd565b60008083602001519050805160001a915060c060ff168260ff1610156107f6576000925050506107fd565b6001925050505b919050565b60008082600001511415610819576000905061086e565b6000809050600061082d8460200151610873565b84602001510190506000846000015185602001510190505b8082101561086757610856826108fc565b820191508280600101935050610845565b8293505050505b919050565b600080825160001a9050608060ff168110156108935760009150506108f7565b60b860ff168110806108b8575060c060ff1681101580156108b7575060f860ff1681105b5b156108c75760019150506108f7565b60c060ff168110156108e75760018060b80360ff168203019150506108f7565b60018060f80360ff168203019150505b919050565b600080825160001a9050608060ff1681101561091c5760019150506109aa565b60b860ff1681101561093a576001608060ff168203019150506109aa565b60c060ff1681101561096a5760b78103600184019350806020036101000a845104600182018101935050506109a8565b60f860ff1681101561098857600160c060ff168203019150506109aa565b60f78103600184019350806020036101000a845104600182018101935050505b505b919050565b60608082600001516040519080825280601f01601f1916602001820160405280156109e95781602001600182028038833980820191505090505b5090506000815114156109ff5780915050610a20565b6000816020019050610a1a8460200151828660000151610d26565b81925050505b919050565b6000602082511015610a405781805190602001209050610adb565b816040516020018082805190602001908083835b60208310610a775780518252602082019150602081019050602083039250610a54565b6001836020036101000a03801982511681845116808217855250505050505090500191505060405160208183030381529060405280519060200120604051602001808281526020019150506040516020818303038152906040528051906020012090505b919050565b60606000826000015111610af357600080fd5b6000610b028360200151610873565b905060008184600001510390506060816040519080825280601f01601f191660200182016040528015610b445781602001600182028038833980820191505090505b5090506000816020019050610b60848760200151018285610d26565b81945050505050919050565b600060606000835111610b7e57600080fd5b6000600f600485600081518110610b9157fe5b602001015160f81c60f81b60f81c60ff16901c1660ff169050600080821415610bc1576002905060009350610c0b565b6001821415610bd7576001905060009350610c0a565b6002821415610bed576002905060019350610c09565b6003821415610c03576001905060019350610c08565b600080fd5b5b5b5b83610c28868387610c1d576000610c20565b60015b60ff16610d8d565b935093505050915091565b600080600090505b8351858201108015610c4d5750825181105b15610ce157828181518110610c5e57fe5b602001015160f81c60f81b7effffffffffffffffffffffffffffffffffffffffffffffffffffffffffffff19168486830181518110610c9957fe5b602001015160f81c60f81b7effffffffffffffffffffffffffffffffffffffffffffffffffffffffffffff191614610cd45780915050610ce6565b8080600101915050610c3b565b809150505b9392505050565b60006001826000015114610d045760009050610d21565b60008083602001519050805160001a915060808260ff1614925050505b919050565b6000811415610d3457610d88565b5b602060ff168110610d645782518252602060ff1683019250602060ff1682019150602060ff1681039050610d35565b6000600182602060ff16036101000a03905080198451168184511681811785525050505b505050565b60606000845111610d9d57600080fd5b60006002855102905080841115610db357600080fd5b83810390508281016040519080825280601f01601f191660200182016040528015610ded5781602001600182028038833980820191505090505b5091506001831415610e3e57601060f81b82600184510381518110610e0e57fe5b60200101907effffffffffffffffffffffffffffffffffffffffffffffffffffffffffffff1916908160001a9053505b600080905060008590505b828601811015610f5557600060028281610e5f57fe5b061415610ed757600f60048860028481610e7557fe5b0481518110610e8057fe5b602001015160f81c60f81b60f81c60ff16901c1660f81b848381518110610ea357fe5b60200101907effffffffffffffffffffffffffffffffffffffffffffffffffffffffffffff1916908160001a905350610f44565b600f60008860028481610ee657fe5b0481518110610ef157fe5b602001015160f81c60f81b60f81c60ff16901c1660f81b848381518110610f1457fe5b60200101907effffffffffffffffffffffffffffffffffffffffffffffffffffffffffffff1916908160001a9053505b600182019150600181019050610e49565b50825184820114610f6257fe5b50509392505050565b604051806040016040528060008152602001600081525090565b60405180604001604052806000815260200160008152509056fea26469706673582212203ca78687474c1d421cc57c283673137b375b6ae1a7016e020c4c36377bbaa36064736f6c63430006020033",
  "source": "pragma solidity ^0.6.0;\n\nimport \"./RLPReader.sol\";\n\ncontract ProvethVerifier {\n    using RLPReader for RLPReader.RLPItem;\n    using RLPReader for bytes;\n\n    function isEmpty(RLPReader.RLPItem memory item) internal pure returns (bool) {\n        if (item.len != 1) {\n            return false;\n        }\n        uint8 b;\n        uint memPtr = item.memPtr;\n        assembly {\n            b := byte(0, mload(memPtr))\n        }\n        return b == 0x80 /* empty byte string */ || b == 0xc0 /* empty list */;\n    }\n\n    function isEmptyBytesequence(RLPReader.RLPItem memory item) internal pure returns (bool) {\n        if (item.len != 1) {\n            return false;\n        }\n        uint8 b;\n        uint memPtr = item.memPtr;\n        assembly {\n            b := byte(0, mload(memPtr))\n        }\n        return b == 0x80 /* empty byte string */;\n    }\n\n    function decodeNibbles(bytes memory compact, uint skipNibbles, uint append16) internal pure returns (bytes memory nibbles) {\n        require(compact.length > 0);\n\n        uint length = compact.length * 2;\n        require(skipNibbles <= length);\n        length -= skipNibbles;\n\n        nibbles = new bytes(length+append16);\n        if(append16 == 1)\n            nibbles[nibbles.length-1] = bytes1(uint8(0x10));\n        uint nibblesLength = 0;\n\n        for (uint i = skipNibbles; i < skipNibbles + length; i += 1) {\n            if (i % 2 == 0) {\n                nibbles[nibblesLength] = bytes1((uint8(compact[i/2]) >> 4) & 0xF);\n            } else {\n                nibbles[nibblesLength] = bytes1((uint8(compact[i/2]) >> 0) & 0xF);\n            }\n            nibblesLength += 1;\n        }\n\n        assert(nibblesLength + append16 == nibbles.length);\n    }\n\n    function merklePatriciaCompactDecode(bytes memory compact) internal pure returns (bool isLeaf, bytes memory nibbles) {\n        require(compact.length > 0);\n        uint first_nibble = uint8(compact[0]) >> 4 & 0xF;\n        uint skipNibbles;\n        if (first_nibble == 0) {\n            skipNibbles = 2;\n            isLeaf = false;\n        } else if (first_nibble == 1) {\n            skipNibbles = 1;\n            isLeaf = false;\n        } else if (first_nibble == 2) {\n            skipNibbles = 2;\n            isLeaf = true;\n        } else if (first_nibble == 3) {\n            skipNibbles = 1;\n            isLeaf = true;\n        } else {\n            // Not supposed to happen!\n            revert();\n        }\n        return (isLeaf, decodeNibbles(compact, skipNibbles, isLeaf?1:0));\n    }\n\n    function sharedPrefixLength(uint xsOffset, bytes memory xs, bytes memory ys) internal pure returns (uint) {\n        uint i;\n        for (i = 0; i + xsOffset < xs.length && i < ys.length; i++) {\n            if (xs[i + xsOffset] != ys[i]) {\n                return i;\n            }\n        }\n        return i;\n    }\n\n    /// @dev Computes the hash of the Merkle-Patricia-Trie hash of the input.\n    ///      Merkle-Patricia-Tries use a weird \"hash function\" that outputs\n    ///      *variable-length* hashes: If the input is shorter than 32 bytes,\n    ///      the MPT hash is the input. Otherwise, the MPT hash is the\n    ///      Keccak-256 hash of the input.\n    ///      The easiest way to compare variable-length byte sequences is\n    ///      to compare their Keccak-256 hashes.\n    /// @param input The byte sequence to be hashed.\n    /// @return Keccak-256(MPT-hash(input))\n    function mptHashHash(bytes memory input) internal pure returns (bytes32) {\n        if (input.length < 32) {\n            return keccak256(input);\n        } else {\n            return keccak256(abi.encodePacked(keccak256(abi.encodePacked(input))));\n        }\n    }\n\n    function MPTProof(bytes32 rootHash, bytes memory mptkey, bytes memory proof) pure public returns(bytes memory){\n        RLPReader.RLPItem[] memory stacks = proof.toRlpItem().toList();\n        return validateMPTProof(rootHash, mptkey, stacks);\n    }\n\n    /// @dev Validates a Merkle-Patricia-Trie proof.\n    ///      If the proof proves the inclusion of some key-value pair in the\n    ///      trie, the value is returned. Otherwise, i.e. if the proof proves\n    ///      the exclusion of a key from the trie, an empty byte array is\n    ///      returned.\n    /// @param rootHash is the Keccak-256 hash of the root node of the MPT.\n    /// @param mptKey is the key (consisting of nibbles) of the node whose\n    ///        inclusion/exclusion we are proving.\n    /// @param stack is the stack of MPT nodes (starting with the root) that\n    ///        need to be traversed during verification.\n    /// @return value whose inclusion is proved or an empty byte array for\n    ///         a proof of exclusion\n    function validateMPTProof(\n        bytes32 rootHash,\n        bytes memory mptKey,\n        RLPReader.RLPItem[] memory stack\n    ) internal pure returns (bytes memory value) {\n        uint mptKeyOffset = 0;\n\n        bytes32 nodeHashHash;\n        bytes memory rlpNode;\n        RLPReader.RLPItem[] memory node;\n\n        RLPReader.RLPItem memory rlpValue;\n\n        if (stack.length == 0) {\n            // Root hash of empty Merkle-Patricia-Trie\n            require(rootHash == 0x56e81f171bcc55a6ff8345e692c0f86e5b48e01b996cadc001622fb5e363b421);\n            return new bytes(0);\n        }\n\n        // Traverse stack of nodes starting at root.\n        for (uint i = 0; i < stack.length; i++) {\n\n            // We use the fact that an rlp encoded list consists of some\n            // encoding of its length plus the concatenation of its\n            // *rlp-encoded* items.\n            rlpNode = stack[i].toRlpBytes();\n            // The root node is hashed with Keccak-256 ...\n            if (i == 0 && rootHash != keccak256(rlpNode)) {\n                revert();\n            }\n            // ... whereas all other nodes are hashed with the MPT\n            // hash function.\n            if (i != 0 && nodeHashHash != mptHashHash(rlpNode)) {\n                revert();\n            }\n            // We verified that stack[i] has the correct hash, so we\n            // may safely decode it.\n            node = stack[i].toList();\n\n            if (node.length == 2) {\n                // Extension or Leaf node\n\n                bool isLeaf;\n                bytes memory nodeKey;\n                (isLeaf, nodeKey) = merklePatriciaCompactDecode(node[0].toBytes());\n\n                uint prefixLength = sharedPrefixLength(mptKeyOffset, mptKey, nodeKey);\n                mptKeyOffset += prefixLength;\n\n                if (prefixLength < nodeKey.length) {\n                    // Proof claims divergent extension or leaf. (Only\n                    // relevant for proofs of exclusion.)\n                    // An Extension/Leaf node is divergent iff it \"skips\" over\n                    // the point at which a Branch node should have been had the\n                    // excluded key been included in the trie.\n                    // Example: Imagine a proof of exclusion for path [1, 4],\n                    // where the current node is a Leaf node with\n                    // path [1, 3, 3, 7]. For [1, 4] to be included, there\n                    // should have been a Branch node at [1] with a child\n                    // at 3 and a child at 4.\n\n                    // Sanity check\n                    if (i < stack.length - 1) {\n                        // divergent node must come last in proof\n                        revert();\n                    }\n\n                    return new bytes(0);\n                }\n\n                if (isLeaf) {\n                    // Sanity check\n                    if (i < stack.length - 1) {\n                        // leaf node must come last in proof\n                        revert();\n                    }\n\n                    if (mptKeyOffset < mptKey.length) {\n                        return new bytes(0);\n                    }\n\n                    rlpValue = node[1];\n                    return rlpValue.toBytes();\n                } else { // extension\n                    // Sanity check\n                    if (i == stack.length - 1) {\n                        // shouldn't be at last level\n                        revert();\n                    }\n\n                    if (!node[1].isList()) {\n                        // rlp(child) was at least 32 bytes. node[1] contains\n                        // Keccak256(rlp(child)).\n                        nodeHashHash = keccak256(node[1].toBytes());\n                    } else {\n                        // rlp(child) was at less than 32 bytes. node[1] contains\n                        // rlp(child).\n                        nodeHashHash = keccak256(node[1].toRlpBytes());\n                    }\n                }\n            } else if (node.length == 17) {\n                // Branch node\n\n                if (mptKeyOffset != mptKey.length) {\n                    // we haven't consumed the entire path, so we need to look at a child\n                    uint8 nibble = uint8(mptKey[mptKeyOffset]);\n                    mptKeyOffset += 1;\n                    if (nibble >= 16) {\n                        // each element of the path has to be a nibble\n                        revert();\n                    }\n\n                    if (isEmptyBytesequence(node[nibble])) {\n                        // Sanity\n                        if (i != stack.length - 1) {\n                            // leaf node should be at last level\n                            revert();\n                        }\n\n                        return new bytes(0);\n                    } else if (!node[nibble].isList()) {\n                        nodeHashHash = keccak256(node[nibble].toBytes());\n                    } else {\n                        nodeHashHash = keccak256(node[nibble].toRlpBytes());\n                    }\n                } else {\n                    // we have consumed the entire mptKey, so we need to look at what's contained in this node.\n\n                    // Sanity\n                    if (i != stack.length - 1) {\n                        // should be at last level\n                        revert();\n                    }\n\n                    return node[16].toBytes();\n                }\n            }\n        }\n    }\n}\n",
  "sourcePath": "/Users/yanxiangwang/hackathon/rainbow_bridge/MPTSolidity/contracts/ProvethVerifier.sol",
  "compiler": {
    "name": "solc",
    "version": "0.6.2+commit.bacdbe57.Emscripten.clang"
  },
  "schemaVersion": "3.2.3",
  "updatedAt": "2020-09-03T12:45:27.719Z",
  "devdoc": {
    "methods": {}
  },
  "userdoc": {
    "methods": {}
  }
}